:100000000C9432000C944F000C944F000C944F0051
:100010000C9496010C944F000C944F000C944F00DC
:100020000C944F000C944F000C944F000C94490119
:100030000C944F000C944F000C944F000C944F0004
:100040000C944F000C944F000C944F000C944F00F4
:100050000C944F00A300B900CF00E500FB00110194
:1000600024013A0111241FBECFE5D8E0DEBFCDBF89
:1000700010E0A0E6B0E0E8EFFCE002C005900D92D1
:10008000AE3AB107D9F720E0AEEAB0E001C01D9268
:10009000AB3BB207E1F70E9454030C947A060C9430
:1000A0000000CF93DF9300D01F92CDB7DEB70E9440
:1000B000E1040E94B0020E94350380E00E9487059F
:1000C0000E944B0361E080E10E94270361E081E12F
:1000D0000E94270361E082E10E94270361E083E13F
:1000E0000E94270361E084E10E94270361E08BE026
:1000F0000E94270361E081E00E94270382E0898358
:100100008A8385E08B83CE0101960E9442036DE7CE
:10011000CE0101960E94450378940F900F900F90A6
:10012000DF91CF91089585E50E94B6058093600028
:1001300090E0FC01F197E830F10508F0A9C0E65D18
:10014000FF4F0C943F0680E10E943203813031F46E
:100150000E94230380E10E942E03089580E10E9403
:100160003203811106C00E94230380E10E942A030A
:10017000089581E10E943203813031F40E9423030B
:1001800081E10E942E03089581E10E9432038111D2
:1001900006C00E94230381E10E942A03089582E1A0
:1001A0000E943203813031F40E94230382E10E94D5
:1001B0002E03089582E10E943203811106C00E943D
:1001C000230382E10E942A03089583E10E943203FF
:1001D000813031F40E94230383E10E942E030895AD
:1001E00083E10E943203811106C00E94230383E150
:1001F0000E942A03089584E10E943203813031F481
:100200000E94230384E10E942E03089584E10E944A
:10021000320381113DC00E94230384E10E942A031E
:1002200008958091B40081110AC081E690E00E9497
:10023000DD058091B4008F5F8093B40008950E9423
:1002400035061092B400089581E00E943203813097
:1002500031F40E94230381E00E942E03089581E07F
:100260000E943203811114C00E94230381E00E9486
:100270002A0308958091B500811106C00E944E03A3
:1002800081E08093B50008950E9451031092B5005B
:1002900008951F920F920FB60F9211242F933F9340
:1002A0004F935F936F937F938F939F93AF93BF937E
:1002B000EF93FF93CF93DF93CDB7DEB72A97DEBFDF
:1002C000CDBF8091B2008F5F8093B2008E3161F418
:1002D00082E00E946F038093B300682F81E690E074
:1002E0000E9429061092B2008091B3004AE0BE013C
:1002F0006F5F7F4F90E00E9445062A960FB6F894F4
:10030000DEBF0FBECDBFDF91CF91FF91EF91BF91C7
:10031000AF919F918F917F916F915F914F913F919D
:100320002F910F900FBE0F901F9018951F920F9254
:100330000FB60F9211242F933F934F935F936F93B8
:100340007F938F939F93AF93BF93EF93FF93CF933D
:10035000DF93CDB7DEB7A897DEBFCDBF8091AF00EA
:100360008F5F8093AF008091AF008D3308F496C00B
:100370001092AF0086EA90E00E94100380E00E9495
:1003800038039093B1008093B0008091B0009091B9
:10039000B1004AE0BE016F5F7F4F0E944506CE016B
:1003A00001960E9410032FEF83EC99E021508040CA
:1003B0009040E1F700C000000E9423038091650097
:1003C00090E02091B0003091B1002817390788F0F3
:1003D00081E00E943203813061F460E088E10E9494
:1003E000480361E089E10E94480381E08093AE0008
:1003F00055C08091640090E02091B0003091B10030
:100400008217930758F01092AE0060E088E10E94D6
:10041000480360E089E10E94480340C08091640085
:1004200090E02091B0003091B1002817390748F1D1
:100430008091650090E02091B0003091B10082176A
:100440009307F8F081E00E9432038130D1F480916B
:10045000AE00813049F460E088E10E94480361E029
:1004600089E10E9448031AC08091AE00811116C034
:1004700060E088E10E94480360E089E10E9448034F
:100480000DC081E00E943203811108C060E088E164
:100490000E94480360E089E10E944803A8960FB6D5
:1004A000F894DEBF0FBECDBFDF91CF91FF91EF91EA
:1004B000BF91AF919F918F917F916F915F914F917C
:1004C0003F912F910F900FBE0F901F90189560E0F5
:1004D0008BE10E9483038FE891E00197F1F700C060
:1004E000000061E08BE10E9483038FE891E00197B7
:1004F000F1F700C0000060E08BE10E9483030895E3
:10050000CF93C82F60E089E00E94830380E00E94BF
:100510003D048F709C2F907F682F692B80E00E9494
:100520004F040E9467028FE19EE40197F1F700C03B
:10053000000080E00E943D0490E1C99F90011124D9
:100540008F70682F622B80E00E944F040E94670228
:100550008FE19EE40197F1F700C00000CF9108956C
:1005600060E08AE00E94830361E08BE10E948303E4
:100570002FEF89EF90E0215080409040E1F700C0DC
:10058000000083E30E9480028FE891E00197F1F779
:1005900000C0000082E30E94800288E20E94800284
:1005A0008FE891E00197F1F700C000008EE00E9413
:1005B000800286E00E94800281E00E94800208950D
:1005C000CF93C82F61E089E00E94830380E00E94FE
:1005D0003D048F709C2F907F682F692B80E00E94D4
:1005E0004F040E9467028FE19EE40197F1F700C07B
:1005F000000080E00E943D0490E1C99F9001112419
:100600008F70682F622B80E00E944F040E94670267
:100610008FE39FE10197F1F700C00000CF910895AB
:100620000F931F93CF938C01C0E003C00E94E002A0
:10063000CF5FF801EC0FF11D80818111F7CFCF91D1
:100640001F910F91089581E00E94800208950E94F9
:100650005F04089561E00E948303089560E00E94B2
:10066000830308950E94050408950E945903089584
:100670000E946F0399230CF40396959587959595A1
:10068000879508950E94DD0508950E942906089522
:100690000E94830308950E94BB0508950E94CD0522
:1006A00008950E94D80508950E9451000E94930069
:1006B000FDCF87B1806487B987B1806887B986B17B
:1006C000806886B986B1886086B986B1816086B94E
:1006D00086B1826086B986B1846086B9089597B183
:1006E000907E8F71892B87B986B1806486B9349BDF
:1006F000FECF86B1806186B924B185B190E0982F94
:100700008827822B0895982F9695969596958770B1
:10071000913021F130F09230F1F1933009F458C06A
:100720000895613069F44BB321E030E0B90102C0B3
:10073000660F771F8A95E2F7CB01842B8BBB089558
:100740004BB321E030E0B90102C0660F771F8A95F4
:10075000E2F7CB01809584238BBB0895613069F467
:1007600048B321E030E0B90102C0660F771F8A95D7
:10077000E2F7CB01842B88BB089548B321E030E039
:10078000B90102C0660F771F8A95E2F7CB01809509
:10079000842388BB0895613069F445B321E030E0DB
:1007A000B90102C0660F771F8A95E2F7CB01842B4F
:1007B00085BB089545B321E030E0B90102C0660F62
:1007C000771F8A95E2F7CB018095842385BB089536
:1007D000613069F442B321E030E0B90102C0660F34
:1007E000771F8A95E2F7CB01842B82BB089542B331
:1007F00021E030E0B90102C0660F771F8A95E2F769
:10080000CB018095842382BB0895982F9695969569
:100810009695482F4770913081F028F09230B9F0CA
:100820009330F9F028C099B3892F90E002C09595D4
:1008300087954A95E2F78170089526B330E0C901A3
:1008400002C0959587954A95E2F78170089523B384
:1008500030E0C90102C0959587954A95E2F781700D
:10086000089520B330E0C90102C0959587954A9557
:10087000E2F78170089580E00895813041F028F01A
:10088000823039F0833039F008C08BB3089588B3D3
:10089000089585B3089582B3089580E00895813066
:1008A00041F028F0823039F0833039F008956BBB85
:1008B000089568BB089565BB089562BB0895982F9D
:1008C0009695969596958770913021F130F09230FB
:1008D000F1F1933009F458C00895613069F44AB3D6
:1008E00021E030E0B90102C0660F771F8A95E2F778
:1008F000CB01842B8ABB08954AB321E030E0B901D3
:1009000002C0660F771F8A95E2F7CB01809584239A
:100910008ABB0895613069F447B321E030E0B90142
:1009200002C0660F771F8A95E2F7CB01842B87BB45
:10093000089547B321E030E0B90102C0660F771F88
:100940008A95E2F7CB018095842387BB08956130B7
:1009500069F444B321E030E0B90102C0660F771FAB
:100960008A95E2F7CB01842B84BB089544B321E040
:1009700030E0B90102C0660F771F8A95E2F7CB011C
:100980008095842384BB0895613069F441B321E0EC
:1009900030E0B90102C0660F771F8A95E2F7CB01FC
:1009A000842B81BB089541B321E030E0B90102C03E
:1009B000660F771F8A95E2F7CB018095842381BB70
:1009C000089580E0A0C0982F969596959695282F2B
:1009D0002770913061F138F0923009F44CC09330B7
:1009E00009F46DC08FC0E82FF0E0EE0FFF1FEA5949
:1009F000FF4F9081913069F49AB341E050E0BA0121
:100A000002C0660F771F2A95E2F79B01292B2ABBAC
:100A100079C09AB341E050E0BA0102C0660F771F77
:100A20002A95E2F79B01209529232ABB6BC0E82F6A
:100A3000F0E0EE0FFF1FEA59FF4F9081913069F40B
:100A400097B341E050E0BA0102C0660F771F2A95C4
:100A5000E2F79B01292B27BB55C097B341E050E03B
:100A6000BA0102C0660F771F2A95E2F79B01209515
:100A7000292327BB47C0E82FF0E0EE0FFF1FEA59FC
:100A8000FF4F9081913069F494B341E050E0BA0196
:100A900002C0660F771F2A95E2F79B01292B24BB22
:100AA00031C094B341E050E0BA0102C0660F771F35
:100AB0002A95E2F79B012095292324BB23C0E82F28
:100AC000F0E0EE0FFF1FEA59FF4F9081913069F47B
:100AD00091B341E050E0BA0102C0660F771F2A953A
:100AE000E2F79B01292B21BB0DC091B341E050E0FF
:100AF000BA0102C0660F771F2A95E2F79B01209585
:100B0000292321BB8F5F803208F45DCF08958823AD
:100B1000C9F0813051F561E08CE00E945F0461E032
:100B20008DE00E945F0460E08EE00E945F0461E05F
:100B30008FE00E945F048DB180618DB98DB18064BA
:100B40008DB9089561E08CE00E945F0461E08DE062
:100B50000E945F0460E08EE00E945F0461E08FE02D
:100B60000E945F048DB180648DB908958FB9779B21
:100B7000FECF8FB1089581B3806281BB1DBC1CBCC8
:100B800087E893E197BD86BD82E88FBD88E18EBD81
:100B900087E791E09BBD8ABD089584EF91E09BBDFE
:100BA0008ABD8EB582608EBD8EB581608EBD089582
:100BB00087E791E09BBD8ABD0895FC01808181118A
:100BC00022C087B3886087BB8091B70082BF8091C5
:100BD000B9008CBF83B7886083BF83B7806483BF4D
:100BE00023B7918130E1939FC0011124922F9F7C04
:100BF000892B83BF83B79281887F892B83BF89B775
:100C0000816089BF0895813019F1823009F581B37F
:100C1000806881BB8091B60084BD8091B80083BD9F
:100C200085B5886085BD85B5806485BD25B5918114
:100C300030E1939FC0011124922F9F7C892B85BDA9
:100C400085B59281887F892B85BD89B7806889BFEA
:100C50000895FC018081811102C06CBF089581302C
:100C600019F0823009F463BD089583B78E7F83BF86
:100C700083B78D7F83BF83B78B7F83BF0895EE0FCC
:100C8000FF1F0590F491E02D0994BB274A3031F401
:100C9000992322F4BDE2909581959F4F0C945106C3
:100CA000BB27FB015527AA27880F991FAA1FA41746
:100CB00010F0A41B83955051B9F7A05DAA3308F03A
:100CC000A95DA193009779F7B111B1931192CB016E
:100CD0000C946A06DC01FC01672F71917723E1F720
:100CE000329704C07C916D9370836291AE17BF07F9
:080CF000C8F30895F894FFCF4A
:100CF80055000205151C0001010101010101010156
:100D080001010101010101010101010101010101CB
:100D180001010101010101010101010101010101BB
:100D280001010101010101010101010101010101AB
:0E0D380000010001000154656D703B200000B9
:00000001FF
