S011000050726F6A65637453482E73726563A1
S11300000C9456000C9473000C9473000C947300BD
S11300100C9473000C9473000C9473000C94730090
S11300200C9473000C9473000C9473000C94730080
S11300300C9473000C9449060C9473000C94730094
S11300400C9473000C9473000C9473000C94730060
S11300500C947300AB044406440644064406440668
S113006000051305260539054C055F0567057A0566
S1130070AF054406440644064406440644064406C2
S1130080440644060D066E06780682068C0696061D
S1130090A006AA06B406C306EE06EE06EE06EE06B3
S11300A0EE06EE06EE06EE06EE06D20611241FBE9E
S11300B0CFE5D8E0DEBFCDBF12E0A0E6B0E0E2EBD2
S11300C0F6E102C005900D92A63CB107D9F722E0F3
S11300D0A6ECB2E001C01D92A93DB207E1F70E946F
S11300E08C080C94570B0C9400000E94E1090E94A8
S11300F00F0881E00E94870A0E947B0761E084E187
S11301000E94FF0661E085E10E94810861E086E1CA
S11301100E94810861E087E10E94810861E083E137
S11301200E94810861E082E10E94810887E10E94C7
S1130130840889EB90E00E9457082FEF83ED90E349
S1130140215080409040E1F700C000000E947D08EB
S1130150089580E091E00E940A07813039F481E03B
S113016091E00E940A07813009F4EFC089EC90E025
S11301700E94570860E082E00E946A0884ED90E0E3
S11301800E9457082FEF83ED90E321508040904068
S1130190E1F700C000000E947D0860E081E00E9459
S11301A06A0883EE90E00E94570860E082E00E94B3
S11301B06A0882EF90E00E94570833C01092CA0286
S11301C004C00E9487078093CA028091CA028823D0
S11301D0C1F3E091C902F0E0E353FD4F80830E9434
S11301E043082FEF85EA9EE0215080409040E1F7DC
S11301F000C000006091C902645F82E00E946A0846
S11302008AE20E9443082FEF81EE94E0215080405F
S11302109040E1F700C000008091C9028F5F809395
S1130220C9028091C902843048F244E050E06DEC88
S113023072E082E091E00E943E0761E080E091E09C
S11302400E942C070E947D0860E081E00E946A08F9
S11302508FEF90E00E9457082FEF89E698E1215034
S113026080409040E1F700C000000E947D0860E0FB
S113027081E00E946A088EE091E00E94570860E0E5
S113028082E00E946A088DE191E00E945708109272
S1130290C90233C01092CA0204C00E948707809327
S11302A0CA028091CA028823C1F3E091C902F0E036
S11302B0E353FD4F80830E9443082FEF85EA9EE0BD
S11302C0215080409040E1F700C000006091C902D5
S11302D0645F82E00E946A088AE20E9443082FEF6A
S11302E081EE94E0215080409040E1F700C000008E
S11302F08091C9028F5F8093C9028091C9028430C2
S113030048F244E050E06DEC72E086E091E00E9437
S11303103E0761E081E091E00E942C070E947D0885
S113032060E081E00E946A088FEF90E00E94570825
S11303302FEF89E698E1215080409040E1F700C01A
S113034000000E947D081092C90208951F93CF9364
S1130350DF9300D000D01F92CDB7DEB71092C90250
S11303601092CA0210E061C28AE291E00E947E0704
S11303700E94810785E391E00E947E070E947D0828
S113038086E491E00E94570860E082E00E946A08D7
S113039084E591E00E9457085FC00E94870780931C
S11303A0CA028091C802882309F456C09091C602FB
S11303B0911152C0E091C702E430B8F4F0E0EB527E
S11303C0FD4F80836FE082E00E946A0889E392E037
S11303D00E94570885ED92E00E9457088091C70259
S11303E08F5F8093C7021092C8028091C702843045
S11303F099F544E050E061ED72E082E091E00E9402
S1130400130744E061ED72E085ED92E00E94650718
S11304108130E1F484E691E00E947E070E94810726
S113042081E08093C60282E10E9484082FEF83EC6E
S113043099E0215080409040E1F700C000000E9404
S113044084071092C7021092C80206C08EE691E09B
S11304500E947E071092C7028091CA02882309F481
S11304609CCF803309F4E0C0813309F4BFC1C4C117
S11304700E947D081092CA028DE791E00E945708FD
S113048060E082E00E946A0888E891E00E945708D0
S11304902FEF81EE94E0215080409040E1F700C0BE
S11304A0000032C00E9487078093CA028091CA026A
S11304B08823C1F3E091C902F0E0E353FD4F808348
S11304C00E9443082FEF85EA9EE02150804090402F
S11304D0E1F700C000006091C902645F82E00E94FD
S11304E06A088AE20E9443082FEF81EE94E02150CB
S11304F080409040E1F700C000008091C9028F5F06
S11305008093C9021092CA028091C902843070F2A9
S11305101092C90244E050E0BE016F5F7F4F82E059
S113052091E00E94130744E0BE016F5F7F4F8DECA2
S113053092E00E946507813049F50E947D0881E0C0
S11305408093CB020E947D0885E991E00E945708C0
S113055064E082E00E946A0880EA91E00E94570801
S11305602FEF89E698E1215080409040E1F700C0E8
S1130570000085E10E94840887E10E94880886E1E2
S11305800E9488080E947D0810E04EC00E947D08E9
S11305901F5F1092CB028EE691E00E94570860E044
S11305A082E00E946A0886EA91E00E9457084AE0C5
S11305B0BE016B5F7F4F812F90E00E94220B0E944F
S11305C057082FEF89E698E1215080409040E1F7E9
S11305D000C000000E947D08133008F525C00E9469
S11305E087078093CA0284E10E9402072FEF89EFF4
S11305F090E0215080409040E1F700C0000084E189
S11306000E9406072FEF89EF90E021508040904030
S1130610E1F700C000008091CA02882301F38091B1
S1130620CA028F32C1F710E08091CB02813009F009
S11306301FCFFBC00E947D081092CA0281EB91E09B
S11306400E94570860E082E00E946A0888E891E00E
S11306500E9457082FEF81EE94E021508040904093
S1130660E1F700C0000032C00E9487078093CA02ED
S11306708091CA028823C1F3E091C902F0E0E353F8
S1130680FD4F80830E9443082FEF85EA9EE02150AE
S113069080409040E1F700C000006091C902645FAF
S11306A082E00E946A088AE20E9443082FEF81EEEA
S11306B094E0215080409040E1F700C00000809118
S11306C0C9028F5F8093C9021092CA028091C90245
S11306D0843070F21092C90244E050E0BE016F5FB2
S11306E07F4F86E091E00E94130744E0BE016F5FF4
S11306F07F4F8DEC92E00E946507813049F50E949E
S11307007D0882E08093CB020E947D0885E991E018
S11307100E94570864E082E00E946A0880EA91E03F
S11307200E9457082FEF89E698E1215080409040BD
S1130730E1F700C0000086E10E94840887E10E947E
S1130740880885E10E9488080E947D0810E04EC058
S11307500E947D081F5F1092CB028EE691E00E94FA
S1130760570860E082E00E946A0886EA91E00E94ED
S113077057084AE0BE016B5F7F4F812F90E00E94D3
S1130780220B0E9457082FEF83ED90E32150804005
S11307909040E1F700C000000E947D08133008F586
S11307A025C00E9487078093CA0284E10E94020741
S11307B02FEF89EF90E0215080409040E1F700C096
S11307C0000084E10E9406072FEF89EF90E021509A
S11307D080409040E1F700C000008091CA02882365
S11307E001F38091CA028F32C1F710E08091CB02ED
S11307F0823009F01FCF19C01092CB020E947D08ED
S113080063E081E00E946A088CEB91E00E94570843
S11308102FEF83ED90E3215080409040E1F700C03A
S113082000000E947D081092CA028091CB028823A6
S113083009F49ACD0F900F900F900F900F90DF91C5
S1130840CF911F91089520C28091CC02811172C072
S11308500E947D0860E081E00E946A0888EC91E0D3
S11308600E94570860E082E00E946A0888ED91E0E7
S11308700E9457085FC00E9487078093CA02809134
S1130880C802882309F456C09091C602911152C03F
S1130890E091C702E430B8F4F0E0EB52FD4F8083FE
S11308A06FE082E00E946A0889E392E00E945708A0
S11308B085ED92E00E9457088091C7028F5F809374
S11308C0C7021092C8028091C702843099F544E0AF
S11308D050E061ED72E082E091E00E94130744E091
S11308E061ED72E085ED92E00E9465078130E1F4EC
S11308F084E691E00E947E070E94810781E0809354
S1130900C60282E10E9484082FEF83EC99E0215013
S113091080409040E1F700C000000E9484071092DC
S1130920C7021092C80206C08EE691E00E947E07BC
S11309301092C702E091CA02EE2309F49CCF8E2FD5
S113094090E0FC01BB97E931F10508F09DC1E65D3B
S1130950FF4F0C941C0B8091CC028F5F8093CC02D0
S1130960813009F50E947D0860E081E00E946A08F8
S113097088EE91E00E94570860E082E00E946A08D5
S11309808091CB02823049F480916000803329F455
S113099086EF91E00E94570804C08BEF91E00E941B
S11309A057081092CA028091CC028230F9F40E9456
S11309B07D0860E081E00E946A088091CB02823069
S11309C049F490916000903329F487E092E00E940A
S11309D057080AC0813021F480E192E00E94570850
S11309E089E192E00E9457081092CA028091CC02D9
S11309F0833008F449C11092CC021092CA0244C157
S1130A0081E30E94B60A0E947D082FEF81EE94E0F4
S1130A10215080409040E1F700C000001092CC02C9
S1130A201092CA0231C182E30E94B60A0E947D0874
S1130A302FEF81EE94E0215080409040E1F700C018
S1130A4000001092CC021092CA021EC183E30E94DD
S1130A50B60A0E947D082FEF81EE94E02150804079
S1130A609040E1F700C000001092CC021092CA023C
S1130A700BC184E30E94B60A0E947D082FEF81EE29
S1130A8094E0215080409040E1F700C000001092B3
S1130A90CC021092CA02F8C085E30E94B60A0E94F2
S1130AA07D082FEF81EE94E0215080409040E1F7E3
S1130AB000C000001092CC021092CA02E5C086E386
S1130AC00E94B60A1092CC021092CA02DDC087E3DB
S1130AD00E94B60A0E947D082FEF83EC99E0215012
S1130AE080409040E1F700C000001092CC021092C8
S1130AF0CA02CAC08091CB02813031F08230B9F48D
S1130B0090916000913399F488E30E94B60A0E94A0
S1130B107D082FEF85EA9EE0215080409040E1F768
S1130B2000C000001092CC021092CA02ADC0823004
S1130B3009F0AAC080916000803309F0A5C010922A
S1130B40CB0285E10E94880887E10E94840886E13F
S1130B500E9488081092CC021092CA0295C080911B
S1130B60CB028130D1F50E947D0882E292E00E949E
S1130B70570860E082E00E946A0881E392E00E94E4
S1130B80570888E392E00E9457088BE392E00E94A2
S1130B9057081092CA0204C00E9487078093CA02B1
S1130BA08091CA028823C1F3813351F48093600099
S1130BB083E10E9484081092CC021092CA0264C09D
S1130BC0803309F061C08093600083E10E9488084B
S1130BD01092CC021092CA0257C01092CA0210920C
S1130BE0CC020E947D0860E081E00E946A0881E4F2
S1130BF092E00E94570860E082E00E946A0885E55E
S1130C0092E00E9457082FEF8FE097E22150804036
S1130C109040E1F700C0000037C08091CB028130E2
S1130C2031F0823091F480916000813371F410923C
S1130C30CB0285E10E94880887E10E94840886E14E
S1130C400E9488081092CC021FC01092CA0210920F
S1130C50CC020E947D0860E081E00E946A0881E481
S1130C6092E00E94570860E082E00E946A0885E5ED
S1130C7092E00E9457082FEF8FE097E221508040C6
S1130C809040E1F700C000008091CB028111DCCDDF
S1130C9008951F920F920FB60F9211242F933F9332
S1130CA04F935F936F937F938F939F93AF93BF9370
S1130CB0EF93FF93ECB1E093C8022091C602213078
S1130CC009F08CC08E2F90E0FC01F197E331F1051F
S1130CD008F084C0ED5BFF4F0C941C0B81E30E9471
S1130CE0B60A1092C80289E792E00E947E0776C095
S1130CF082E30E94B60A1092C80281E892E00E9440
S1130D007E076CC083E30E94B60A1092C80289E889
S1130D1092E00E947E0762C084E30E94B60A1092A9
S1130D20C80281E992E00E947E0758C085E30E94D0
S1130D30B60A1092C80289E992E00E947E074EC06A
S1130D4086E30E94B60A1092C80281EA92E00E94E9
S1130D507E0744C087E30E94B60A1092C8028AEA5A
S1130D6092E00E947E073AC0213041F488E30E9459
S1130D70B60A8FEA92E00E947E0730C08FE492E0C8
S1130D800E947E072BC0213041F483E10E94840835
S1130D9084E692E00E947E0721C08FE492E00E94E4
S1130DA07E071CC02130B1F48CE692E00E947E07DD
S1130DB00E9481078AE291E00E947E070E948107D7
S1130DC085E391E00E947E0782E10E9488081092E8
S1130DD0C60204C08FE492E00E947E07FF91EF9167
S1130DE0BF91AF919F918F917F916F915F914F913F
S1130DF03F912F910F900FBE0F901F9018950E9456
S1130E005F09089561E00E949508089560E00E94DA
S1130E1095080895E199FECF9FBB8EBB8CB381608A
S1130E208CBB8DB30895DC01E199FECF20E030E066
S1130E300FC0F901EA0FFB1FFFBBEEBB9CB391602F
S1130E409CBBFB01E20FF31F9DB390832F5F3F4FC9
S1130E502417350770F30895E199FECF9FBB8EBB2D
S1130E608CB381608CBB8DB3861739F06DBB8CB3AA
S1130E7084608CBB8CB382608CBB0895CF93DF936A
S1130E80DC01EA0120E030E01AC0E199FECFC9019B
S1130E908A0F9B1F9FBB8EBB9CB391609CBB5DB3B1
S1130EA0FB01E20FF31F9081591739F09DBB9CB3EE
S1130EB094609CBB9CB392609CBB2F5F3F4F2C17EC
S1130EC03D0718F3DF91CF910895DC0190E00DC048
S1130ED0292F30E0FD01E20FF31F5081FB01E20FE7
S1130EE0F31F2081521305C09F5F941788F381E09C
S1130EF0089580E008950E94BB0A08950E94C80ADC
S1130F0008950E94DB0A08950E94DF0A0895EF9273
S1130F10FF920F931F93CF93DF93C0E011C00C2F68
S1130F2010E0F801EB58FF4F61E080810E949508C2
S1130F30F801EF58FF4F61E080810E949508CF5F70
S1130F40C43068F3D0E034C0ED2EF12CF701EB5837
S1130F50FF4F60E080810E949508C0E01FC00C2F05
S1130F6010E0F801EF58FF4F80810E9417098111AA
S1130F7014C0F801EF58FF4F80810E94170988239D
S1130F80C1F3C701880F991F880F991F8F599F4F6D
S1130F90FC01E00FF11F80810EC0CF5FC430F8F276
S1130FA0F701EB58FF4F61E080810E949508DF5FF5
S1130FB0D43050F280E0DF91CF911F910F91FF90D8
S1130FC0EF90089560E08BE00E9495088FE891E02F
S1130FD00197F1F700C0000061E08BE00E949508E2
S1130FE08FE891E00197F1F700C0000060E08BE02A
S1130FF00E9495080895CF93C82F60E089E00E946D
S113100095086C2F80E00E944F090E94E2078FE14F
S11310109EE40197F1F700C00000CF91089560E0CD
S11310208AE00E94950861E08BE00E94950888E3BD
S11310300E94FB078FEE90E00197F1F700C00000DB
S11310408EE00E94FB078FEE90E00197F1F700C05D
S1131050000086E00E94FB079AE19A95F1F700C030
S113106081E00E94FB078FEE90E00197F1F700C04A
S1131070000080E80E94FB078FEE90E00197F1F7F3
S113108000C000000895CF93C82F61E089E00E945A
S113109095086C2F80E00E944F090E94E2078FE1BF
S11310A09EE40197F1F700C00000CF9108950F93DB
S11310B01F93CF938C01C0E003C00E944308CF5F0D
S11310C0F801EC0FF11D80818111F7CFCF911F91B1
S11310D00F910895813019F0823031F00AC080E810
S11310E0860F0E94FB07089580EC860F0E94FB0781
S11310F0089580E80E94FB07089581E00E94FB07A1
S113110008950E945F09089561E00E94950808957A
S113111060E00E94950808950E9475000E94A9004D
S11311200E94A6010E942304FBCF982F96959695C2
S113113096958770913021F130F09230F1F193302F
S113114009F458C00895613069F44BB321E030E0EC
S1131150B90102C0660F771F8A95E2F7CB01842B91
S11311608BBB08954BB321E030E0B90102C0660F98
S1131170771F8A95E2F7CB01809584238BBB089572
S1131180613069F448B321E030E0B90102C0660F70
S1131190771F8A95E2F7CB01842B88BB089548B367
S11311A021E030E0B90102C0660F771F8A95E2F7AB
S11311B0CB018095842388BB0895613069F445B3DD
S11311C021E030E0B90102C0660F771F8A95E2F78B
S11311D0CB01842B85BB089545B321E030E0B901F0
S11311E002C0660F771F8A95E2F7CB0180958423AE
S11311F085BB0895613069F442B321E030E0B90160
S113120002C0660F771F8A95E2F7CB01842B82BB5D
S1131210089542B321E030E0B90102C0660F771FA0
S11312208A95E2F7CB018095842382BB0895982F99
S1131230969596959695482F4770913081F028F0B1
S11312409230B9F09330F9F028C099B3892F90E027
S113125002C0959587954A95E2F78170089526B363
S113126030E0C90102C0959587954A95E2F78170EF
S1131270089523B330E0C90102C0959587954A9536
S1131280E2F78170089520B330E0C90102C095955A
S113129087954A95E2F78170089580E0089581303A
S11312A041F028F0823039F0833039F008956BBB77
S11312B0089568BB089565BB089562BB0895982F8F
S11312C09695969596958770913021F130F09230ED
S11312D0F1F1933009F458C00895613069F44AB3C8
S11312E021E030E0B90102C0660F771F8A95E2F76A
S11312F0CB01842B8ABB08954AB321E030E0B901C5
S113130002C0660F771F8A95E2F7CB01809584238C
S11313108ABB0895613069F447B321E030E0B90134
S113132002C0660F771F8A95E2F7CB01842B87BB37
S1131330089547B321E030E0B90102C0660F771F7A
S11313408A95E2F7CB018095842387BB08956130A9
S113135069F444B321E030E0B90102C0660F771F9D
S11313608A95E2F7CB01842B84BB089544B321E032
S113137030E0B90102C0660F771F8A95E2F7CB010E
S11313808095842384BB0895613069F441B321E0DE
S113139030E0B90102C0660F771F8A95E2F7CB01EE
S11313A0842B81BB089541B321E030E0B90102C030
S11313B0660F771F8A95E2F7CB018095842381BB62
S11313C0089580E0A0C0982F969596959695282F1D
S11313D02770913061F138F0923009F44CC09330A9
S11313E009F46DC08FC0E82FF0E0EE0FFF1FE7583F
S11313F0FF4F9081913069F49AB341E050E0BA0113
S113140002C0660F771F2A95E2F79B01292B2ABB9E
S113141079C09AB341E050E0BA0102C0660F771F69
S11314202A95E2F79B01209529232ABB6BC0E82F5C
S1131430F0E0EE0FFF1FE758FF4F9081913069F401
S113144097B341E050E0BA0102C0660F771F2A95B6
S1131450E2F79B01292B27BB55C097B341E050E02D
S1131460BA0102C0660F771F2A95E2F79B01209507
S1131470292327BB47C0E82FF0E0EE0FFF1FE758F2
S1131480FF4F9081913069F494B341E050E0BA0188
S113149002C0660F771F2A95E2F79B01292B24BB14
S11314A031C094B341E050E0BA0102C0660F771F27
S11314B02A95E2F79B012095292324BB23C0E82F1A
S11314C0F0E0EE0FFF1FE758FF4F9081913069F471
S11314D091B341E050E0BA0102C0660F771F2A952C
S11314E0E2F79B01292B21BB0DC091B341E050E0F1
S11314F0BA0102C0660F771F2A95E2F79B01209577
S1131500292321BB8F5F803208F45DCF089588239F
S1131510C9F0813051F561E08CE00E945F0961E01F
S11315208DE00E945F0960E08EE00E945F0961E047
S11315308FE00E945F098DB180618DB98DB18064A7
S11315408DB9089561E08CE00E945F0961E08DE04F
S11315500E945F0960E08EE00E945F0961E08FE015
S11315600E945F098DB180648DB908958FB9779B0E
S1131570FECF8FB1089588E98AB986E880BD87E6F1
S113158089B910BC789408955D9BFECF8CB90895F9
S11315900F931F93CF938C01C0E003C00E94C40A31
S11315A0CF5FF801EC0FF11D80818111F7CFCF914E
S11315B01F910F9108958AE00E94C40A089587E755
S11315C092E00E94C80A0E94DB0A8FE792E00E9420
S11315D0C80A0E94DB0A87E892E00E94C80A0E94B7
S11315E0DB0A8FE892E00E94C80A0E94DB0A87E9BE
S11315F092E00E94C80A0E94DB0A8FE992E00E94EE
S1131600C80A0E94DB0A88EA92E00E94C80A0E9483
S1131610DB0A8DEA92E00E94C80A0E94DB0A84EB8E
S113162092E00E94C80A0E94DB0A8DEB92E00E94BD
S1131630C80A0E94DB0A0895EE0FFF1F0590F4917B
S1131640E02D0994BB274A3031F4992322F4BDE2FA
S1131650909581959F4F0C942E0BBB27FB0155272A
S1131660AA27880F991FAA1FA41710F0A41B8395FB
S11316705051B9F7A05DAA3308F0A95DA193009772
S113168079F7B111B1931192CB010C94470BDC01A2
S1131690FC01672F71917723E1F7329704C07C91A5
S11316A06D9370836291AE17BF07C8F30895F894E1
S10516B0FFCF66
S11316B2303738392F3435362A3132332D43303DE1
S11316C22B1C1D1E1F10111A1B0101010101010116
S11316D201010101010101010101010101010101F4
S11316E201010101010101010101010101010101E4
S11316F201010101010101010100010101010101D5
S113170201000100010001000157656C636F6D6502
S113171220746F20686F6D65004C6F6767696E6730
S113172220696E00666F7220666972737420746930
S11317326D65005365742041646D696E2070617338
S1131742730041646D696E20706173733A200050B6
S1131752617373776F726420736176656400536595
S113176274204775657374207061737300477565DF
S1131772737420706173733A200041646D696E2042
S11317826D6F646500456E74657220506173737782
S11317926F72643A200053656C656374204D6F6404
S11317A2653A2000303A41646D696E20313A4775DA
S11317B2657374004C6F6767656420696E005772C5
S11317C26F6E672050617373776F72640041646D4A
S11317D2696E204D6F646500456E746572205061B8
S11317E273733A2000417574686F72697A65640094
S11317F2456E6A6F7900417474656D7074733A2032
S1131802004775657374204D6F64650057726F6E7F
S11318126720696E70757400313A524F4F4D312C06
S1131822323A524F4F4D3200333A524F4F4D332CCE
S1131832343A524F4F4D3400353A524F4F4D352CB6
S1131842363A44696D00373A414300373A41432CF2
S1131852383A444F4F5200383A4C6F676F757400F0
S1131862393A41636365737300433A4C6F676F752A
S113187274004775657374204163636573733A201A
S1131882005965733A2031002020004E4F3A20302F
S113189200506C656173652063686F6F7365004304
S11318A2686F6F73652066726F6D20746865206C53
S11318B2697374004772616E746564004C6F676784
S11318C26564204F757400312E524F4F4D310032F2
S11318D22E524F4F4D3200332E524F4F4D33003460
S11318E22E524F4F4D3400352E524F4F4D35003648
S11318F22E44696D6D657200372E414300382E44C3
S11319024F4F5200392E41636365737300432E4C6B
S10919126F676F7574009D
S9030000FC
